{
  "_format": "hh-sol-artifact-1",
  "contractName": "Twitter",
  "sourceName": "contracts/Twitter.sol",
  "abi": [
    {
      "inputs": [
        {
          "internalType": "address",
          "name": "_profileContractAddress",
          "type": "address"
        }
      ],
      "stateMutability": "nonpayable",
      "type": "constructor"
    },
    {
      "inputs": [
        {
          "internalType": "address",
          "name": "owner",
          "type": "address"
        }
      ],
      "name": "OwnableInvalidOwner",
      "type": "error"
    },
    {
      "inputs": [
        {
          "internalType": "address",
          "name": "account",
          "type": "address"
        }
      ],
      "name": "OwnableUnauthorizedAccount",
      "type": "error"
    },
    {
      "anonymous": false,
      "inputs": [
        {
          "indexed": true,
          "internalType": "address",
          "name": "previousOwner",
          "type": "address"
        },
        {
          "indexed": true,
          "internalType": "address",
          "name": "newOwner",
          "type": "address"
        }
      ],
      "name": "OwnershipTransferred",
      "type": "event"
    },
    {
      "anonymous": false,
      "inputs": [
        {
          "indexed": false,
          "internalType": "uint256",
          "name": "id",
          "type": "uint256"
        },
        {
          "indexed": false,
          "internalType": "address",
          "name": "author",
          "type": "address"
        },
        {
          "indexed": false,
          "internalType": "string",
          "name": "content",
          "type": "string"
        },
        {
          "indexed": false,
          "internalType": "uint256",
          "name": "timestamp",
          "type": "uint256"
        },
        {
          "indexed": false,
          "internalType": "uint256",
          "name": "likes",
          "type": "uint256"
        }
      ],
      "name": "TweetCreated",
      "type": "event"
    },
    {
      "anonymous": false,
      "inputs": [
        {
          "indexed": false,
          "internalType": "uint256",
          "name": "id",
          "type": "uint256"
        },
        {
          "indexed": false,
          "internalType": "address",
          "name": "author",
          "type": "address"
        },
        {
          "indexed": false,
          "internalType": "address",
          "name": "liker",
          "type": "address"
        },
        {
          "indexed": false,
          "internalType": "uint256",
          "name": "newLikesCount",
          "type": "uint256"
        }
      ],
      "name": "TweetLiked",
      "type": "event"
    },
    {
      "anonymous": false,
      "inputs": [
        {
          "indexed": false,
          "internalType": "uint256",
          "name": "id",
          "type": "uint256"
        },
        {
          "indexed": false,
          "internalType": "address",
          "name": "author",
          "type": "address"
        },
        {
          "indexed": false,
          "internalType": "address",
          "name": "liker",
          "type": "address"
        },
        {
          "indexed": false,
          "internalType": "uint256",
          "name": "newLikesCount",
          "type": "uint256"
        }
      ],
      "name": "TweetUnliked",
      "type": "event"
    },
    {
      "inputs": [],
      "name": "MAX_TWEET_LENGTH",
      "outputs": [
        {
          "internalType": "uint16",
          "name": "",
          "type": "uint16"
        }
      ],
      "stateMutability": "view",
      "type": "function"
    },
    {
      "inputs": [
        {
          "internalType": "uint16",
          "name": "_newMaxTweetLength",
          "type": "uint16"
        }
      ],
      "name": "changeMaxTweetLenth",
      "outputs": [],
      "stateMutability": "nonpayable",
      "type": "function"
    },
    {
      "inputs": [
        {
          "internalType": "string",
          "name": "_tweet",
          "type": "string"
        }
      ],
      "name": "createTweets",
      "outputs": [],
      "stateMutability": "nonpayable",
      "type": "function"
    },
    {
      "inputs": [
        {
          "internalType": "address",
          "name": "_author",
          "type": "address"
        }
      ],
      "name": "getTotalLikes",
      "outputs": [
        {
          "internalType": "uint256",
          "name": "",
          "type": "uint256"
        }
      ],
      "stateMutability": "view",
      "type": "function"
    },
    {
      "inputs": [
        {
          "internalType": "address",
          "name": "_owner",
          "type": "address"
        },
        {
          "internalType": "uint256",
          "name": "_i",
          "type": "uint256"
        }
      ],
      "name": "getTweet",
      "outputs": [
        {
          "components": [
            {
              "internalType": "uint256",
              "name": "id",
              "type": "uint256"
            },
            {
              "internalType": "address",
              "name": "author",
              "type": "address"
            },
            {
              "internalType": "string",
              "name": "content",
              "type": "string"
            },
            {
              "internalType": "uint256",
              "name": "timestamp",
              "type": "uint256"
            },
            {
              "internalType": "uint256",
              "name": "likes",
              "type": "uint256"
            }
          ],
          "internalType": "struct Twitter.Tweet",
          "name": "",
          "type": "tuple"
        }
      ],
      "stateMutability": "view",
      "type": "function"
    },
    {
      "inputs": [
        {
          "internalType": "address",
          "name": "_owner",
          "type": "address"
        }
      ],
      "name": "getTweets",
      "outputs": [
        {
          "components": [
            {
              "internalType": "uint256",
              "name": "id",
              "type": "uint256"
            },
            {
              "internalType": "address",
              "name": "author",
              "type": "address"
            },
            {
              "internalType": "string",
              "name": "content",
              "type": "string"
            },
            {
              "internalType": "uint256",
              "name": "timestamp",
              "type": "uint256"
            },
            {
              "internalType": "uint256",
              "name": "likes",
              "type": "uint256"
            }
          ],
          "internalType": "struct Twitter.Tweet[]",
          "name": "",
          "type": "tuple[]"
        }
      ],
      "stateMutability": "view",
      "type": "function"
    },
    {
      "inputs": [
        {
          "internalType": "address",
          "name": "_userAddress",
          "type": "address"
        },
        {
          "internalType": "uint256",
          "name": "_id",
          "type": "uint256"
        }
      ],
      "name": "likeTweet",
      "outputs": [],
      "stateMutability": "nonpayable",
      "type": "function"
    },
    {
      "inputs": [],
      "name": "owner",
      "outputs": [
        {
          "internalType": "address",
          "name": "",
          "type": "address"
        }
      ],
      "stateMutability": "view",
      "type": "function"
    },
    {
      "inputs": [],
      "name": "profileContract",
      "outputs": [
        {
          "internalType": "contract IProfile",
          "name": "",
          "type": "address"
        }
      ],
      "stateMutability": "view",
      "type": "function"
    },
    {
      "inputs": [],
      "name": "renounceOwnership",
      "outputs": [],
      "stateMutability": "nonpayable",
      "type": "function"
    },
    {
      "inputs": [
        {
          "internalType": "address",
          "name": "newOwner",
          "type": "address"
        }
      ],
      "name": "transferOwnership",
      "outputs": [],
      "stateMutability": "nonpayable",
      "type": "function"
    },
    {
      "inputs": [
        {
          "internalType": "address",
          "name": "",
          "type": "address"
        },
        {
          "internalType": "uint256",
          "name": "",
          "type": "uint256"
        }
      ],
      "name": "tweets",
      "outputs": [
        {
          "internalType": "uint256",
          "name": "id",
          "type": "uint256"
        },
        {
          "internalType": "address",
          "name": "author",
          "type": "address"
        },
        {
          "internalType": "string",
          "name": "content",
          "type": "string"
        },
        {
          "internalType": "uint256",
          "name": "timestamp",
          "type": "uint256"
        },
        {
          "internalType": "uint256",
          "name": "likes",
          "type": "uint256"
        }
      ],
      "stateMutability": "view",
      "type": "function"
    },
    {
      "inputs": [
        {
          "internalType": "address",
          "name": "_userAddress",
          "type": "address"
        },
        {
          "internalType": "uint256",
          "name": "_id",
          "type": "uint256"
        }
      ],
      "name": "unlikeTweets",
      "outputs": [],
      "stateMutability": "nonpayable",
      "type": "function"
    }
  ],
  "bytecode": "0x6080604052610118600360006101000a81548161ffff021916908361ffff1602179055503480156200003057600080fd5b50604051620025fa380380620025fa833981810160405281019062000056919062000254565b33600073ffffffffffffffffffffffffffffffffffffffff168173ffffffffffffffffffffffffffffffffffffffff1603620000cc5760006040517f1e4fbdf7000000000000000000000000000000000000000000000000000000008152600401620000c3919062000297565b60405180910390fd5b620000dd816200012660201b60201c565b5080600160006101000a81548173ffffffffffffffffffffffffffffffffffffffff021916908373ffffffffffffffffffffffffffffffffffffffff16021790555050620002b4565b60008060009054906101000a900473ffffffffffffffffffffffffffffffffffffffff169050816000806101000a81548173ffffffffffffffffffffffffffffffffffffffff021916908373ffffffffffffffffffffffffffffffffffffffff1602179055508173ffffffffffffffffffffffffffffffffffffffff168173ffffffffffffffffffffffffffffffffffffffff167f8be0079c531659141344cd1fd0a4f28419497f9722a3daafe3b4186f6b6457e060405160405180910390a35050565b600080fd5b600073ffffffffffffffffffffffffffffffffffffffff82169050919050565b60006200021c82620001ef565b9050919050565b6200022e816200020f565b81146200023a57600080fd5b50565b6000815190506200024e8162000223565b92915050565b6000602082840312156200026d576200026c620001ea565b5b60006200027d848285016200023d565b91505092915050565b62000291816200020f565b82525050565b6000602082019050620002ae600083018462000286565b92915050565b61233680620002c46000396000f3fe608060405234801561001057600080fd5b50600436106100cf5760003560e01c80636eb107971161008c5780638da5cb5b116100665780638da5cb5b146102005780639e92b0931461021e578063a3974b211461024e578063f2fde38b1461026c576100cf565b80636eb10797146101a8578063715018a6146101c6578063820785cc146101d0576100cf565b806305a1b4a9146100d45780630a7aa8a114610108578063112f54e3146101245780634545c7be1461015457806363378216146101705780636acfc2c91461018c575b600080fd5b6100ee60048036038101906100e99190611437565b610288565b6040516100ff959493929190611525565b60405180910390f35b610122600480360381019061011d91906116b4565b610383565b005b61013e60048036038101906101399190611437565b6106ce565b60405161014b91906117db565b60405180910390f35b61016e60048036038101906101699190611837565b61084e565b005b61018a60048036038101906101859190611437565b610876565b005b6101a660048036038101906101a19190611437565b610b23565b005b6101b0610e75565b6040516101bd9190611873565b60405180910390f35b6101ce610e89565b005b6101ea60048036038101906101e5919061188e565b610e9d565b6040516101f791906118bb565b60405180910390f35b610208610f7e565b60405161021591906118d6565b60405180910390f35b6102386004803603810190610233919061188e565b610fa7565b6040516102459190611a29565b60405180910390f35b61025661114b565b6040516102639190611aaa565b60405180910390f35b6102866004803603810190610281919061188e565b611171565b005b600260205281600052604060002081815481106102a457600080fd5b9060005260206000209060050201600091509150508060000154908060010160009054906101000a900473ffffffffffffffffffffffffffffffffffffffff16908060020180546102f490611af4565b80601f016020809104026020016040519081016040528092919081815260200182805461032090611af4565b801561036d5780601f106103425761010080835404028352916020019161036d565b820191906000526020600020905b81548152906001019060200180831161035057829003601f168201915b5050505050908060030154908060040154905085565b6000600160009054906101000a900473ffffffffffffffffffffffffffffffffffffffff1673ffffffffffffffffffffffffffffffffffffffff16630f53a470336040518263ffffffff1660e01b81526004016103e091906118d6565b600060405180830381865afa1580156103fd573d6000803e3d6000fd5b505050506040513d6000823e3d601f19601f820116820180604052508101906104269190611c27565b9050600081600001515111610470576040517f08c379a000000000000000000000000000000000000000000000000000000000815260040161046790611cbc565b60405180910390fd5b60008251116104b4576040517f08c379a00000000000000000000000000000000000000000000000000000000081526004016104ab90611d28565b60405180910390fd5b600360009054906101000a900461ffff1661ffff168251111561050c576040517f08c379a000000000000000000000000000000000000000000000000000000000815260040161050390611dba565b60405180910390fd5b60006040518060a00160405280600260003373ffffffffffffffffffffffffffffffffffffffff1673ffffffffffffffffffffffffffffffffffffffff1681526020019081526020016000208054905081526020013373ffffffffffffffffffffffffffffffffffffffff16815260200184815260200142815260200160008152509050600260003373ffffffffffffffffffffffffffffffffffffffff1673ffffffffffffffffffffffffffffffffffffffff1681526020019081526020016000208190806001815401808255809150506001900390600052602060002090600502016000909190919091506000820151816000015560208201518160010160006101000a81548173ffffffffffffffffffffffffffffffffffffffff021916908373ffffffffffffffffffffffffffffffffffffffff160217905550604082015181600201908161065f9190611f7c565b50606082015181600301556080820151816004015550507f881ee5e736450a2211622934b24ae6488e14ca8444788d6e26fdbe582d098391816000015182602001518360400151846060015185608001516040516106c1959493929190611525565b60405180910390a1505050565b6106d661134a565b600260008473ffffffffffffffffffffffffffffffffffffffff1673ffffffffffffffffffffffffffffffffffffffff16815260200190815260200160002082815481106107275761072661204e565b5b90600052602060002090600502016040518060a0016040529081600082015481526020016001820160009054906101000a900473ffffffffffffffffffffffffffffffffffffffff1673ffffffffffffffffffffffffffffffffffffffff1673ffffffffffffffffffffffffffffffffffffffff1681526020016002820180546107b090611af4565b80601f01602080910402602001604051908101604052809291908181526020018280546107dc90611af4565b80156108295780601f106107fe57610100808354040283529160200191610829565b820191906000526020600020905b81548152906001019060200180831161080c57829003601f168201915b5050505050815260200160038201548152602001600482015481525050905092915050565b6108566111f7565b80600360006101000a81548161ffff021916908361ffff16021790555050565b6000600160009054906101000a900473ffffffffffffffffffffffffffffffffffffffff1673ffffffffffffffffffffffffffffffffffffffff16630f53a470336040518263ffffffff1660e01b81526004016108d391906118d6565b600060405180830381865afa1580156108f0573d6000803e3d6000fd5b505050506040513d6000823e3d601f19601f820116820180604052508101906109199190611c27565b9050600081600001515111610963576040517f08c379a000000000000000000000000000000000000000000000000000000000815260040161095a90611cbc565b60405180910390fd5b81600260008573ffffffffffffffffffffffffffffffffffffffff1673ffffffffffffffffffffffffffffffffffffffff16815260200190815260200160002083815481106109b5576109b461204e565b5b90600052602060002090600502016000015414610a07576040517f08c379a00000000000000000000000000000000000000000000000000000000081526004016109fe906120c9565b60405180910390fd5b600260008473ffffffffffffffffffffffffffffffffffffffff1673ffffffffffffffffffffffffffffffffffffffff1681526020019081526020016000208281548110610a5857610a5761204e565b5b90600052602060002090600502016004016000815480929190610a7a90612118565b91905055507f2e5505d3059643bb8915ceb5be79a7e40c7e492ee3961fe4446fe4b02312d490828433600260008873ffffffffffffffffffffffffffffffffffffffff1673ffffffffffffffffffffffffffffffffffffffff1681526020019081526020016000208681548110610af457610af361204e565b5b906000526020600020906005020160040154604051610b169493929190612160565b60405180910390a1505050565b6000600160009054906101000a900473ffffffffffffffffffffffffffffffffffffffff1673ffffffffffffffffffffffffffffffffffffffff16630f53a470336040518263ffffffff1660e01b8152600401610b8091906118d6565b600060405180830381865afa158015610b9d573d6000803e3d6000fd5b505050506040513d6000823e3d601f19601f82011682018060405250810190610bc69190611c27565b9050600081600001515111610c10576040517f08c379a0000000000000000000000000000000000000000000000000000000008152600401610c0790611cbc565b60405180910390fd5b81600260008573ffffffffffffffffffffffffffffffffffffffff1673ffffffffffffffffffffffffffffffffffffffff1681526020019081526020016000208381548110610c6257610c6161204e565b5b90600052602060002090600502016000015414610cb4576040517f08c379a0000000000000000000000000000000000000000000000000000000008152600401610cab906121f1565b60405180910390fd5b6000600260008573ffffffffffffffffffffffffffffffffffffffff1673ffffffffffffffffffffffffffffffffffffffff1681526020019081526020016000208381548110610d0757610d0661204e565b5b90600052602060002090600502016004015411610d59576040517f08c379a0000000000000000000000000000000000000000000000000000000008152600401610d5090612283565b60405180910390fd5b600260008473ffffffffffffffffffffffffffffffffffffffff1673ffffffffffffffffffffffffffffffffffffffff1681526020019081526020016000208281548110610daa57610da961204e565b5b90600052602060002090600502016004016000815480929190610dcc906122a3565b91905055507fd23d0c4fd308c0ea1642890191910648bd3532017344c412c778b1d1bd80afcd828433600260008873ffffffffffffffffffffffffffffffffffffffff1673ffffffffffffffffffffffffffffffffffffffff1681526020019081526020016000208681548110610e4657610e4561204e565b5b906000526020600020906005020160040154604051610e689493929190612160565b60405180910390a1505050565b600360009054906101000a900461ffff1681565b610e916111f7565b610e9b600061127e565b565b6000806000905060005b600260008573ffffffffffffffffffffffffffffffffffffffff1673ffffffffffffffffffffffffffffffffffffffff16815260200190815260200160002080549050811015610f7457600260008573ffffffffffffffffffffffffffffffffffffffff1673ffffffffffffffffffffffffffffffffffffffff1681526020019081526020016000208181548110610f4257610f4161204e565b5b90600052602060002090600502016004015482610f5f91906122cc565b91508080610f6c90612118565b915050610ea7565b5080915050919050565b60008060009054906101000a900473ffffffffffffffffffffffffffffffffffffffff16905090565b6060600260008373ffffffffffffffffffffffffffffffffffffffff1673ffffffffffffffffffffffffffffffffffffffff168152602001908152602001600020805480602002602001604051908101604052809291908181526020016000905b8282101561114057838290600052602060002090600502016040518060a0016040529081600082015481526020016001820160009054906101000a900473ffffffffffffffffffffffffffffffffffffffff1673ffffffffffffffffffffffffffffffffffffffff1673ffffffffffffffffffffffffffffffffffffffff16815260200160028201805461109b90611af4565b80601f01602080910402602001604051908101604052809291908181526020018280546110c790611af4565b80156111145780601f106110e957610100808354040283529160200191611114565b820191906000526020600020905b8154815290600101906020018083116110f757829003601f168201915b505050505081526020016003820154815260200160048201548152505081526020019060010190611008565b505050509050919050565b600160009054906101000a900473ffffffffffffffffffffffffffffffffffffffff1681565b6111796111f7565b600073ffffffffffffffffffffffffffffffffffffffff168173ffffffffffffffffffffffffffffffffffffffff16036111eb5760006040517f1e4fbdf70000000000000000000000000000000000000000000000000000000081526004016111e291906118d6565b60405180910390fd5b6111f48161127e565b50565b6111ff611342565b73ffffffffffffffffffffffffffffffffffffffff1661121d610f7e565b73ffffffffffffffffffffffffffffffffffffffff161461127c57611240611342565b6040517f118cdaa700000000000000000000000000000000000000000000000000000000815260040161127391906118d6565b60405180910390fd5b565b60008060009054906101000a900473ffffffffffffffffffffffffffffffffffffffff169050816000806101000a81548173ffffffffffffffffffffffffffffffffffffffff021916908373ffffffffffffffffffffffffffffffffffffffff1602179055508173ffffffffffffffffffffffffffffffffffffffff168173ffffffffffffffffffffffffffffffffffffffff167f8be0079c531659141344cd1fd0a4f28419497f9722a3daafe3b4186f6b6457e060405160405180910390a35050565b600033905090565b6040518060a0016040528060008152602001600073ffffffffffffffffffffffffffffffffffffffff1681526020016060815260200160008152602001600081525090565b6000604051905090565b600080fd5b600080fd5b600073ffffffffffffffffffffffffffffffffffffffff82169050919050565b60006113ce826113a3565b9050919050565b6113de816113c3565b81146113e957600080fd5b50565b6000813590506113fb816113d5565b92915050565b6000819050919050565b61141481611401565b811461141f57600080fd5b50565b6000813590506114318161140b565b92915050565b6000806040838503121561144e5761144d611399565b5b600061145c858286016113ec565b925050602061146d85828601611422565b9150509250929050565b61148081611401565b82525050565b61148f816113c3565b82525050565b600081519050919050565b600082825260208201905092915050565b60005b838110156114cf5780820151818401526020810190506114b4565b60008484015250505050565b6000601f19601f8301169050919050565b60006114f782611495565b61150181856114a0565b93506115118185602086016114b1565b61151a816114db565b840191505092915050565b600060a08201905061153a6000830188611477565b6115476020830187611486565b818103604083015261155981866114ec565b90506115686060830185611477565b6115756080830184611477565b9695505050505050565b600080fd5b600080fd5b7f4e487b7100000000000000000000000000000000000000000000000000000000600052604160045260246000fd5b6115c1826114db565b810181811067ffffffffffffffff821117156115e0576115df611589565b5b80604052505050565b60006115f361138f565b90506115ff82826115b8565b919050565b600067ffffffffffffffff82111561161f5761161e611589565b5b611628826114db565b9050602081019050919050565b82818337600083830152505050565b600061165761165284611604565b6115e9565b90508281526020810184848401111561167357611672611584565b5b61167e848285611635565b509392505050565b600082601f83011261169b5761169a61157f565b5b81356116ab848260208601611644565b91505092915050565b6000602082840312156116ca576116c9611399565b5b600082013567ffffffffffffffff8111156116e8576116e761139e565b5b6116f484828501611686565b91505092915050565b61170681611401565b82525050565b611715816113c3565b82525050565b600082825260208201905092915050565b600061173782611495565b611741818561171b565b93506117518185602086016114b1565b61175a816114db565b840191505092915050565b600060a08301600083015161177d60008601826116fd565b506020830151611790602086018261170c565b50604083015184820360408601526117a8828261172c565b91505060608301516117bd60608601826116fd565b5060808301516117d060808601826116fd565b508091505092915050565b600060208201905081810360008301526117f58184611765565b905092915050565b600061ffff82169050919050565b611814816117fd565b811461181f57600080fd5b50565b6000813590506118318161180b565b92915050565b60006020828403121561184d5761184c611399565b5b600061185b84828501611822565b91505092915050565b61186d816117fd565b82525050565b60006020820190506118886000830184611864565b92915050565b6000602082840312156118a4576118a3611399565b5b60006118b2848285016113ec565b91505092915050565b60006020820190506118d06000830184611477565b92915050565b60006020820190506118eb6000830184611486565b92915050565b600081519050919050565b600082825260208201905092915050565b6000819050602082019050919050565b600060a08301600083015161193560008601826116fd565b506020830151611948602086018261170c565b5060408301518482036040860152611960828261172c565b915050606083015161197560608601826116fd565b50608083015161198860808601826116fd565b508091505092915050565b600061199f838361191d565b905092915050565b6000602082019050919050565b60006119bf826118f1565b6119c981856118fc565b9350836020820285016119db8561190d565b8060005b85811015611a1757848403895281516119f88582611993565b9450611a03836119a7565b925060208a019950506001810190506119df565b50829750879550505050505092915050565b60006020820190508181036000830152611a4381846119b4565b905092915050565b6000819050919050565b6000611a70611a6b611a66846113a3565b611a4b565b6113a3565b9050919050565b6000611a8282611a55565b9050919050565b6000611a9482611a77565b9050919050565b611aa481611a89565b82525050565b6000602082019050611abf6000830184611a9b565b92915050565b7f4e487b7100000000000000000000000000000000000000000000000000000000600052602260045260246000fd5b60006002820490506001821680611b0c57607f821691505b602082108103611b1f57611b1e611ac5565b5b50919050565b600080fd5b600080fd5b6000611b42611b3d84611604565b6115e9565b905082815260208101848484011115611b5e57611b5d611584565b5b611b698482856114b1565b509392505050565b600082601f830112611b8657611b8561157f565b5b8151611b96848260208601611b2f565b91505092915050565b600060408284031215611bb557611bb4611b25565b5b611bbf60406115e9565b9050600082015167ffffffffffffffff811115611bdf57611bde611b2a565b5b611beb84828501611b71565b600083015250602082015167ffffffffffffffff811115611c0f57611c0e611b2a565b5b611c1b84828501611b71565b60208301525092915050565b600060208284031215611c3d57611c3c611399565b5b600082015167ffffffffffffffff811115611c5b57611c5a61139e565b5b611c6784828501611b9f565b91505092915050565b7f596f75206e65656420746f206861766520612070726f66696c65206669727374600082015250565b6000611ca66020836114a0565b9150611cb182611c70565b602082019050919050565b60006020820190508181036000830152611cd581611c99565b9050919050565b7f54776565742063616e206e6f7420626520656d70747900000000000000000000600082015250565b6000611d126016836114a0565b9150611d1d82611cdc565b602082019050919050565b60006020820190508181036000830152611d4181611d05565b9050919050565b7f54776565742063616e206e6f74206265206c6f6e676572207468616e2032383060008201527f2063686172616374657273000000000000000000000000000000000000000000602082015250565b6000611da4602b836114a0565b9150611daf82611d48565b604082019050919050565b60006020820190508181036000830152611dd381611d97565b9050919050565b60008190508160005260206000209050919050565b60006020601f8301049050919050565b600082821b905092915050565b600060088302611e3c7fffffffffffffffffffffffffffffffffffffffffffffffffffffffffffffffff82611dff565b611e468683611dff565b95508019841693508086168417925050509392505050565b6000611e79611e74611e6f84611401565b611a4b565b611401565b9050919050565b6000819050919050565b611e9383611e5e565b611ea7611e9f82611e80565b848454611e0c565b825550505050565b600090565b611ebc611eaf565b611ec7818484611e8a565b505050565b5b81811015611eeb57611ee0600082611eb4565b600181019050611ecd565b5050565b601f821115611f3057611f0181611dda565b611f0a84611def565b81016020851015611f19578190505b611f2d611f2585611def565b830182611ecc565b50505b505050565b600082821c905092915050565b6000611f5360001984600802611f35565b1980831691505092915050565b6000611f6c8383611f42565b9150826002028217905092915050565b611f8582611495565b67ffffffffffffffff811115611f9e57611f9d611589565b5b611fa88254611af4565b611fb3828285611eef565b600060209050601f831160018114611fe65760008415611fd4578287015190505b611fde8582611f60565b865550612046565b601f198416611ff486611dda565b60005b8281101561201c57848901518255600182019150602085019450602081019050611ff7565b868310156120395784890151612035601f891682611f42565b8355505b6001600288020188555050505b505050505050565b7f4e487b7100000000000000000000000000000000000000000000000000000000600052603260045260246000fd5b7f54776565747320646f6573206e6f742065786973747300000000000000000000600082015250565b60006120b36016836114a0565b91506120be8261207d565b602082019050919050565b600060208201905081810360008301526120e2816120a6565b9050919050565b7f4e487b7100000000000000000000000000000000000000000000000000000000600052601160045260246000fd5b600061212382611401565b91507fffffffffffffffffffffffffffffffffffffffffffffffffffffffffffffffff8203612155576121546120e9565b5b600182019050919050565b60006080820190506121756000830187611477565b6121826020830186611486565b61218f6040830185611486565b61219c6060830184611477565b95945050505050565b7f547765657420646f6573206e6f74206578697374730000000000000000000000600082015250565b60006121db6015836114a0565b91506121e6826121a5565b602082019050919050565b6000602082019050818103600083015261220a816121ce565b9050919050565b7f43616e206e6f74206469736c696b6520747765657420776974682030206c696b60008201527f6573000000000000000000000000000000000000000000000000000000000000602082015250565b600061226d6022836114a0565b915061227882612211565b604082019050919050565b6000602082019050818103600083015261229c81612260565b9050919050565b60006122ae82611401565b9150600082036122c1576122c06120e9565b5b600182039050919050565b60006122d782611401565b91506122e283611401565b92508282019050808211156122fa576122f96120e9565b5b9291505056fea2646970667358221220915e18473be8ecc3c8fe39c4234cfa7c522f366fb91dd394178d2b65dbe8735564736f6c63430008140033",
  "linkReferences": {},
  "deployedLinkReferences": {}
}