{"abi":[{"type":"function","name":"getProfile","inputs":[{"name":"_user","type":"address","internalType":"address"}],"outputs":[{"name":"","type":"tuple","internalType":"struct Profile.UserProfile","components":[{"name":"displayName","type":"string","internalType":"string"},{"name":"bio","type":"string","internalType":"string"}]}],"stateMutability":"view"},{"type":"function","name":"profiles","inputs":[{"name":"","type":"address","internalType":"address"}],"outputs":[{"name":"displayName","type":"string","internalType":"string"},{"name":"bio","type":"string","internalType":"string"}],"stateMutability":"view"},{"type":"function","name":"setProfile","inputs":[{"name":"_displayName","type":"string","internalType":"string"},{"name":"_bio","type":"string","internalType":"string"}],"outputs":[],"stateMutability":"nonpayable"}],"bytecode":{"object":"0x608060405234801561001057600080fd5b506106e2806100206000396000f3fe608060405234801561001057600080fd5b50600436106100415760003560e01c80630f53a47014610046578063719e37ae1461006f578063bbe1562714610084575b600080fd5b610059610054366004610381565b6100a5565b60405161006691906103f7565b60405180910390f35b61008261007d3660046104dc565b610205565b005b610097610092366004610381565b610255565b604051610066929190610540565b60408051808201909152606080825260208201526001600160a01b0382166000908152602081905260409081902081518083019092528054829082906100ea90610565565b80601f016020809104026020016040519081016040528092919081815260200182805461011690610565565b80156101635780601f1061013857610100808354040283529160200191610163565b820191906000526020600020905b81548152906001019060200180831161014657829003601f168201915b5050505050815260200160018201805461017c90610565565b80601f01602080910402602001604051908101604052809291908181526020018280546101a890610565565b80156101f55780601f106101ca576101008083540402835291602001916101f5565b820191906000526020600020905b8154815290600101906020018083116101d857829003601f168201915b5050505050815250509050919050565b604080518082018252838152602080820184905233600090815290819052919091208151829190819061023890826105ec565b506020820151600182019061024d90826105ec565b505050505050565b60006020819052908152604090208054819061027090610565565b80601f016020809104026020016040519081016040528092919081815260200182805461029c90610565565b80156102e95780601f106102be576101008083540402835291602001916102e9565b820191906000526020600020905b8154815290600101906020018083116102cc57829003601f168201915b5050505050908060010180546102fe90610565565b80601f016020809104026020016040519081016040528092919081815260200182805461032a90610565565b80156103775780601f1061034c57610100808354040283529160200191610377565b820191906000526020600020905b81548152906001019060200180831161035a57829003601f168201915b5050505050905082565b60006020828403121561039357600080fd5b81356001600160a01b03811681146103aa57600080fd5b9392505050565b6000815180845260005b818110156103d7576020818501810151868301820152016103bb565b506000602082860101526020601f19601f83011685010191505092915050565b60208152600082516040602084015261041360608401826103b1565b90506020840151601f1984830301604085015261043082826103b1565b95945050505050565b634e487b7160e01b600052604160045260246000fd5b600082601f83011261046057600080fd5b813567ffffffffffffffff8082111561047b5761047b610439565b604051601f8301601f19908116603f011681019082821181831017156104a3576104a3610439565b816040528381528660208588010111156104bc57600080fd5b836020870160208301376000602085830101528094505050505092915050565b600080604083850312156104ef57600080fd5b823567ffffffffffffffff8082111561050757600080fd5b6105138683870161044f565b9350602085013591508082111561052957600080fd5b506105368582860161044f565b9150509250929050565b60408152600061055360408301856103b1565b828103602084015261043081856103b1565b600181811c9082168061057957607f821691505b60208210810361059957634e487b7160e01b600052602260045260246000fd5b50919050565b601f8211156105e7576000816000526020600020601f850160051c810160208610156105c85750805b601f850160051c820191505b8181101561024d578281556001016105d4565b505050565b815167ffffffffffffffff81111561060657610606610439565b61061a816106148454610565565b8461059f565b602080601f83116001811461064f57600084156106375750858301515b600019600386901b1c1916600185901b17855561024d565b600085815260208120601f198616915b8281101561067e5788860151825594840194600190910190840161065f565b508582101561069c5787850151600019600388901b60f8161c191681555b5050505050600190811b0190555056fea2646970667358221220e2682b91e27e2fa62a9f32edb6d96f305abb471f57e43b712f4304bc44d80da964736f6c63430008170033","linkReferences":{}},"methodIdentifiers":{"getProfile(address)":"0f53a470","profiles(address)":"bbe15627","setProfile(string,string)":"719e37ae"},"id":0}