{"abi":[{"type":"constructor","inputs":[{"name":"_profileContractAddress","type":"address","internalType":"address"}],"stateMutability":"nonpayable"},{"type":"function","name":"MAX_TWEET_LENGTH","inputs":[],"outputs":[{"name":"","type":"uint16","internalType":"uint16"}],"stateMutability":"view"},{"type":"function","name":"changeMaxTweetLenth","inputs":[{"name":"_newMaxTweetLength","type":"uint16","internalType":"uint16"}],"outputs":[],"stateMutability":"nonpayable"},{"type":"function","name":"createTweets","inputs":[{"name":"_tweet","type":"string","internalType":"string"}],"outputs":[],"stateMutability":"nonpayable"},{"type":"function","name":"getTotalLikes","inputs":[{"name":"_author","type":"address","internalType":"address"}],"outputs":[{"name":"","type":"uint256","internalType":"uint256"}],"stateMutability":"view"},{"type":"function","name":"getTweet","inputs":[{"name":"_owner","type":"address","internalType":"address"},{"name":"_i","type":"uint256","internalType":"uint256"}],"outputs":[{"name":"","type":"tuple","internalType":"struct Twitter.Tweet","components":[{"name":"id","type":"uint256","internalType":"uint256"},{"name":"author","type":"address","internalType":"address"},{"name":"content","type":"string","internalType":"string"},{"name":"timestamp","type":"uint256","internalType":"uint256"},{"name":"likes","type":"uint256","internalType":"uint256"}]}],"stateMutability":"view"},{"type":"function","name":"getTweets","inputs":[{"name":"_owner","type":"address","internalType":"address"}],"outputs":[{"name":"","type":"tuple[]","internalType":"struct Twitter.Tweet[]","components":[{"name":"id","type":"uint256","internalType":"uint256"},{"name":"author","type":"address","internalType":"address"},{"name":"content","type":"string","internalType":"string"},{"name":"timestamp","type":"uint256","internalType":"uint256"},{"name":"likes","type":"uint256","internalType":"uint256"}]}],"stateMutability":"view"},{"type":"function","name":"likeTweet","inputs":[{"name":"_userAddress","type":"address","internalType":"address"},{"name":"_id","type":"uint256","internalType":"uint256"}],"outputs":[],"stateMutability":"nonpayable"},{"type":"function","name":"owner","inputs":[],"outputs":[{"name":"","type":"address","internalType":"address"}],"stateMutability":"view"},{"type":"function","name":"profileContract","inputs":[],"outputs":[{"name":"","type":"address","internalType":"contract IProfile"}],"stateMutability":"view"},{"type":"function","name":"renounceOwnership","inputs":[],"outputs":[],"stateMutability":"nonpayable"},{"type":"function","name":"transferOwnership","inputs":[{"name":"newOwner","type":"address","internalType":"address"}],"outputs":[],"stateMutability":"nonpayable"},{"type":"function","name":"tweets","inputs":[{"name":"","type":"address","internalType":"address"},{"name":"","type":"uint256","internalType":"uint256"}],"outputs":[{"name":"id","type":"uint256","internalType":"uint256"},{"name":"author","type":"address","internalType":"address"},{"name":"content","type":"string","internalType":"string"},{"name":"timestamp","type":"uint256","internalType":"uint256"},{"name":"likes","type":"uint256","internalType":"uint256"}],"stateMutability":"view"},{"type":"function","name":"unlikeTweets","inputs":[{"name":"_userAddress","type":"address","internalType":"address"},{"name":"_id","type":"uint256","internalType":"uint256"}],"outputs":[],"stateMutability":"nonpayable"},{"type":"event","name":"OwnershipTransferred","inputs":[{"name":"previousOwner","type":"address","indexed":true,"internalType":"address"},{"name":"newOwner","type":"address","indexed":true,"internalType":"address"}],"anonymous":false},{"type":"event","name":"TweetCreated","inputs":[{"name":"id","type":"uint256","indexed":false,"internalType":"uint256"},{"name":"author","type":"address","indexed":false,"internalType":"address"},{"name":"content","type":"string","indexed":false,"internalType":"string"},{"name":"timestamp","type":"uint256","indexed":false,"internalType":"uint256"},{"name":"likes","type":"uint256","indexed":false,"internalType":"uint256"}],"anonymous":false},{"type":"event","name":"TweetLiked","inputs":[{"name":"id","type":"uint256","indexed":false,"internalType":"uint256"},{"name":"author","type":"address","indexed":false,"internalType":"address"},{"name":"liker","type":"address","indexed":false,"internalType":"address"},{"name":"newLikesCount","type":"uint256","indexed":false,"internalType":"uint256"}],"anonymous":false},{"type":"event","name":"TweetUnliked","inputs":[{"name":"id","type":"uint256","indexed":false,"internalType":"uint256"},{"name":"author","type":"address","indexed":false,"internalType":"address"},{"name":"liker","type":"address","indexed":false,"internalType":"address"},{"name":"newLikesCount","type":"uint256","indexed":false,"internalType":"uint256"}],"anonymous":false},{"type":"error","name":"OwnableInvalidOwner","inputs":[{"name":"owner","type":"address","internalType":"address"}]},{"type":"error","name":"OwnableUnauthorizedAccount","inputs":[{"name":"account","type":"address","internalType":"address"}]}],"bytecode":{"object":"0x60806040526003805461ffff191661011817905534801561001f57600080fd5b506040516114bd3803806114bd83398101604081905261003e916100e3565b338061006457604051631e4fbdf760e01b81526000600482015260240160405180910390fd5b61006d81610093565b50600180546001600160a01b0319166001600160a01b0392909216919091179055610113565b600080546001600160a01b038381166001600160a01b0319831681178455604051919092169283917f8be0079c531659141344cd1fd0a4f28419497f9722a3daafe3b4186f6b6457e09190a35050565b6000602082840312156100f557600080fd5b81516001600160a01b038116811461010c57600080fd5b9392505050565b61139b806101226000396000f3fe608060405234801561001057600080fd5b50600436106100cf5760003560e01c80636eb107971161008c5780638da5cb5b116100665780638da5cb5b146101b95780639e92b093146101de578063a3974b21146101fe578063f2fde38b1461021157600080fd5b80636eb107971461016f578063715018a614610190578063820785cc1461019857600080fd5b806305a1b4a9146100d45780630a7aa8a114610101578063112f54e3146101165780634545c7be1461013657806363378216146101495780636acfc2c91461015c575b600080fd5b6100e76100e2366004610dcd565b610224565b6040516100f8959493929190610e47565b60405180910390f35b61011461010f366004610ef4565b610306565b005b610129610124366004610dcd565b610553565b6040516100f89190610fc5565b610114610144366004610fdf565b6106b9565b610114610157366004610dcd565b6106d9565b61011461016a366004610dcd565b6108d9565b60035461017d9061ffff1681565b60405161ffff90911681526020016100f8565b610114610b2a565b6101ab6101a6366004611003565b610b3e565b6040519081526020016100f8565b6000546001600160a01b03165b6040516001600160a01b0390911681526020016100f8565b6101f16101ec366004611003565b610bbb565b6040516100f8919061101e565b6001546101c6906001600160a01b031681565b61011461021f366004611003565b610cf6565b6002602052816000526040600020818154811061024057600080fd5b60009182526020909120600590910201805460018201546002830180549295506001600160a01b0390911693509061027790611082565b80601f01602080910402602001604051908101604052809291908181526020018280546102a390611082565b80156102f05780601f106102c5576101008083540402835291602001916102f0565b820191906000526020600020905b8154815290600101906020018083116102d357829003601f168201915b5050505050908060030154908060040154905085565b60015460405162f53a4760e41b81523360048201526000916001600160a01b031690630f53a47090602401600060405180830381865afa15801561034e573d6000803e3d6000fd5b505050506040513d6000823e601f3d908101601f191682016040526103769190810190611109565b8051519091506103a15760405162461bcd60e51b8152600401610398906111b0565b60405180910390fd5b60008251116103eb5760405162461bcd60e51b815260206004820152601660248201527554776565742063616e206e6f7420626520656d70747960501b6044820152606401610398565b600354825161ffff90911610156104585760405162461bcd60e51b815260206004820152602b60248201527f54776565742063616e206e6f74206265206c6f6e676572207468616e2032383060448201526a206368617261637465727360a81b6064820152608401610398565b6040805160a0810182523360008181526002602081815285832080548087528287019586529686018981524260608801526080870185905283835260018089018355918552919093208551600590970201958655925191850180546001600160a01b0319166001600160a01b039093169290921790915590519192839290918201906104e49082611236565b50606082015181600301556080820151816004015550507f881ee5e736450a2211622934b24ae6488e14ca8444788d6e26fdbe582d09839181600001518260200151836040015184606001518560800151604051610546959493929190610e47565b60405180910390a1505050565b61058e6040518060a001604052806000815260200160006001600160a01b031681526020016060815260200160008152602001600081525090565b6001600160a01b03831660009081526002602052604090208054839081106105b8576105b86112f6565b90600052602060002090600502016040518060a0016040529081600082015481526020016001820160009054906101000a90046001600160a01b03166001600160a01b03166001600160a01b0316815260200160028201805461061a90611082565b80601f016020809104026020016040519081016040528092919081815260200182805461064690611082565b80156106935780601f1061066857610100808354040283529160200191610693565b820191906000526020600020905b81548152906001019060200180831161067657829003601f168201915b505050505081526020016003820154815260200160048201548152505090505b92915050565b6106c1610d34565b6003805461ffff191661ffff92909216919091179055565b60015460405162f53a4760e41b81523360048201526000916001600160a01b031690630f53a47090602401600060405180830381865afa158015610721573d6000803e3d6000fd5b505050506040513d6000823e601f3d908101601f191682016040526107499190810190611109565b80515190915061076b5760405162461bcd60e51b8152600401610398906111b0565b6001600160a01b0383166000908152600260205260409020805483919082908110610798576107986112f6565b906000526020600020906005020160000154146107f05760405162461bcd60e51b815260206004820152601660248201527554776565747320646f6573206e6f742065786973747360501b6044820152606401610398565b6001600160a01b038316600090815260026020526040902080548390811061081a5761081a6112f6565b60009182526020822060046005909202010180549161083883611322565b91905055507f2e5505d3059643bb8915ceb5be79a7e40c7e492ee3961fe4446fe4b02312d49082843360026000886001600160a01b03166001600160a01b031681526020019081526020016000208681548110610897576108976112f6565b90600052602060002090600502016004015460405161054694939291909384526001600160a01b03928316602085015291166040830152606082015260800190565b60015460405162f53a4760e41b81523360048201526000916001600160a01b031690630f53a47090602401600060405180830381865afa158015610921573d6000803e3d6000fd5b505050506040513d6000823e601f3d908101601f191682016040526109499190810190611109565b80515190915061096b5760405162461bcd60e51b8152600401610398906111b0565b6001600160a01b0383166000908152600260205260409020805483919082908110610998576109986112f6565b906000526020600020906005020160000154146109ef5760405162461bcd60e51b8152602060048201526015602482015274547765657420646f6573206e6f742065786973747360581b6044820152606401610398565b6001600160a01b0383166000908152600260205260408120805484908110610a1957610a196112f6565b90600052602060002090600502016004015411610a835760405162461bcd60e51b815260206004820152602260248201527f43616e206e6f74206469736c696b6520747765657420776974682030206c696b604482015261657360f01b6064820152608401610398565b6001600160a01b0383166000908152600260205260409020805483908110610aad57610aad6112f6565b600091825260208220600460059092020101805491610acb8361133b565b91905055507fd23d0c4fd308c0ea1642890191910648bd3532017344c412c778b1d1bd80afcd82843360026000886001600160a01b03166001600160a01b031681526020019081526020016000208681548110610897576108976112f6565b610b32610d34565b610b3c6000610d61565b565b600080805b6001600160a01b038416600090815260026020526040902054811015610bb4576001600160a01b0384166000908152600260205260409020805482908110610b8d57610b8d6112f6565b90600052602060002090600502016004015482610baa9190611352565b9150600101610b43565b5092915050565b6001600160a01b0381166000908152600260209081526040808320805482518185028101850190935280835260609492939192909184015b82821015610ceb5760008481526020908190206040805160a081018252600586029092018054835260018101546001600160a01b03169383019390935260028301805492939291840191610c4690611082565b80601f0160208091040260200160405190810160405280929190818152602001828054610c7290611082565b8015610cbf5780601f10610c9457610100808354040283529160200191610cbf565b820191906000526020600020905b815481529060010190602001808311610ca257829003601f168201915b505050505081526020016003820154815260200160048201548152505081526020019060010190610bf3565b505050509050919050565b610cfe610d34565b6001600160a01b038116610d2857604051631e4fbdf760e01b815260006004820152602401610398565b610d3181610d61565b50565b6000546001600160a01b03163314610b3c5760405163118cdaa760e01b8152336004820152602401610398565b600080546001600160a01b038381166001600160a01b0319831681178455604051919092169283917f8be0079c531659141344cd1fd0a4f28419497f9722a3daafe3b4186f6b6457e09190a35050565b80356001600160a01b0381168114610dc857600080fd5b919050565b60008060408385031215610de057600080fd5b610de983610db1565b946020939093013593505050565b60005b83811015610e12578181015183820152602001610dfa565b50506000910152565b60008151808452610e33816020860160208601610df7565b601f01601f19169290920160200192915050565b8581526001600160a01b038516602082015260a060408201819052600090610e7190830186610e1b565b606083019490945250608001529392505050565b634e487b7160e01b600052604160045260246000fd5b604051601f8201601f1916810167ffffffffffffffff81118282101715610ec457610ec4610e85565b604052919050565b600067ffffffffffffffff821115610ee657610ee6610e85565b50601f01601f191660200190565b600060208284031215610f0657600080fd5b813567ffffffffffffffff811115610f1d57600080fd5b8201601f81018413610f2e57600080fd5b8035610f41610f3c82610ecc565b610e9b565b818152856020838501011115610f5657600080fd5b81602084016020830137600091810160200191909152949350505050565b8051825260018060a01b0360208201511660208301526000604082015160a06040850152610fa560a0850182610e1b565b905060608301516060850152608083015160808501528091505092915050565b602081526000610fd86020830184610f74565b9392505050565b600060208284031215610ff157600080fd5b813561ffff81168114610fd857600080fd5b60006020828403121561101557600080fd5b610fd882610db1565b600060208083016020845280855180835260408601915060408160051b87010192506020870160005b8281101561107557603f19888603018452611063858351610f74565b94509285019290850190600101611047565b5092979650505050505050565b600181811c9082168061109657607f821691505b6020821081036110b657634e487b7160e01b600052602260045260246000fd5b50919050565b600082601f8301126110cd57600080fd5b81516110db610f3c82610ecc565b8181528460208386010111156110f057600080fd5b611101826020830160208701610df7565b949350505050565b60006020828403121561111b57600080fd5b815167ffffffffffffffff8082111561113357600080fd5b908301906040828603121561114757600080fd5b60405160408101818110838211171561116257611162610e85565b60405282518281111561117457600080fd5b611180878286016110bc565b82525060208301518281111561119557600080fd5b6111a1878286016110bc565b60208301525095945050505050565b6020808252818101527f596f75206e65656420746f206861766520612070726f66696c65206669727374604082015260600190565b601f821115611231576000816000526020600020601f850160051c8101602086101561120e5750805b601f850160051c820191505b8181101561122d5782815560010161121a565b5050505b505050565b815167ffffffffffffffff81111561125057611250610e85565b6112648161125e8454611082565b846111e5565b602080601f83116001811461129957600084156112815750858301515b600019600386901b1c1916600185901b17855561122d565b600085815260208120601f198616915b828110156112c8578886015182559484019460019091019084016112a9565b50858210156112e65787850151600019600388901b60f8161c191681555b5050505050600190811b01905550565b634e487b7160e01b600052603260045260246000fd5b634e487b7160e01b600052601160045260246000fd5b6000600182016113345761133461130c565b5060010190565b60008161134a5761134a61130c565b506000190190565b808201808211156106b3576106b361130c56fea2646970667358221220542525827f1c4b811d69b55937e16e4827e7bd189dbe750b811fe82ea59794a364736f6c63430008170033","linkReferences":{}},"methodIdentifiers":{"MAX_TWEET_LENGTH()":"6eb10797","changeMaxTweetLenth(uint16)":"4545c7be","createTweets(string)":"0a7aa8a1","getTotalLikes(address)":"820785cc","getTweet(address,uint256)":"112f54e3","getTweets(address)":"9e92b093","likeTweet(address,uint256)":"63378216","owner()":"8da5cb5b","profileContract()":"a3974b21","renounceOwnership()":"715018a6","transferOwnership(address)":"f2fde38b","tweets(address,uint256)":"05a1b4a9","unlikeTweets(address,uint256)":"6acfc2c9"},"id":1}